{
  "_format": "hh-sol-artifact-1",
  "contractName": "FOW_transaction",
  "sourceName": "contracts/FOW_transaction.sol",
  "abi": [
    {
      "inputs": [],
      "stateMutability": "nonpayable",
      "type": "constructor"
    },
    {
      "inputs": [],
      "name": "owner",
      "outputs": [
        {
          "internalType": "address",
          "name": "",
          "type": "address"
        }
      ],
      "stateMutability": "view",
      "type": "function"
    },
    {
      "inputs": [],
      "name": "send",
      "outputs": [],
      "stateMutability": "payable",
      "type": "function"
    }
  ],
  "bytecode": "0x608060405234801561001057600080fd5b50336000806101000a81548173ffffffffffffffffffffffffffffffffffffffff021916908373ffffffffffffffffffffffffffffffffffffffff160217905550610242806100606000396000f3fe6080604052600436106100295760003560e01c80638da5cb5b1461002e578063b46300ec14610059575b600080fd5b34801561003a57600080fd5b50610043610063565b6040516100509190610174565b60405180910390f35b610061610087565b005b60008054906101000a900473ffffffffffffffffffffffffffffffffffffffff1681565b600034116100ca576040517f08c379a00000000000000000000000000000000000000000000000000000000081526004016100c1906101ec565b60405180910390fd5b60008054906101000a900473ffffffffffffffffffffffffffffffffffffffff1673ffffffffffffffffffffffffffffffffffffffff166108fc349081150290604051600060405180830381858888f19350505050158015610130573d6000803e3d6000fd5b50565b600073ffffffffffffffffffffffffffffffffffffffff82169050919050565b600061015e82610133565b9050919050565b61016e81610153565b82525050565b60006020820190506101896000830184610165565b92915050565b600082825260208201905092915050565b7f596f752063616e27742073656e64203020657468000000000000000000000000600082015250565b60006101d660148361018f565b91506101e1826101a0565b602082019050919050565b60006020820190508181036000830152610205816101c9565b905091905056fea2646970667358221220601f7f4205db3729cc1510cfbf86b2b96779d9941af409c6b84b8c8c0fddb79564736f6c63430008110033",
  "linkReferences": {},
  "deployedLinkReferences": {}
}