{
  "_format": "hh-sol-artifact-1",
  "contractName": "FOW_transaction",
  "sourceName": "contracts/FOW_transaction.sol",
  "abi": [
    {
      "inputs": [
        {
          "internalType": "address",
          "name": "_addr",
          "type": "address"
        },
        {
          "internalType": "uint256",
          "name": "_value",
          "type": "uint256"
        }
      ],
      "name": "send",
      "outputs": [],
      "stateMutability": "payable",
      "type": "function"
    }
  ],
  "bytecode": "0x608060405234801561001057600080fd5b50610259806100206000396000f3fe60806040526004361061001e5760003560e01c8063d0679d3414610023575b600080fd5b61003d60048036038101906100389190610166565b61003f565b005b80341015610082576040517f08c379a000000000000000000000000000000000000000000000000000000000815260040161007990610203565b60405180910390fd5b8173ffffffffffffffffffffffffffffffffffffffff166108fc349081150290604051600060405180830381858888f193505050501580156100c8573d6000803e3d6000fd5b505050565b600080fd5b600073ffffffffffffffffffffffffffffffffffffffff82169050919050565b60006100fd826100d2565b9050919050565b61010d816100f2565b811461011857600080fd5b50565b60008135905061012a81610104565b92915050565b6000819050919050565b61014381610130565b811461014e57600080fd5b50565b6000813590506101608161013a565b92915050565b6000806040838503121561017d5761017c6100cd565b5b600061018b8582860161011b565b925050602061019c85828601610151565b9150509250929050565b600082825260208201905092915050565b7f496e73756666696369656e742066756e64730000000000000000000000000000600082015250565b60006101ed6012836101a6565b91506101f8826101b7565b602082019050919050565b6000602082019050818103600083015261021c816101e0565b905091905056fea26469706673582212207f5336c8f78cd7fc9d64005f5ccdc87debc623dbb012d9855192aad662ce8cbb64736f6c63430008110033",
  "linkReferences": {},
  "deployedLinkReferences": {}
}